:020000040800F2
:1000000008040020250100088D0100088D0100086A
:100010008D0100088D0100088D010008000000001E
:100020000000000000000000000000008D0100083A
:100030008D010008000000008D0100088D010008FE
:100040008D0100088D0100088D0100088D01000858
:100050008D0100088D0100088D0100088D01000848
:100060008D0100088D0100088D0100088D01000838
:100070008D0100088D0100088D0100088D01000828
:100080008D0100088D0100088D01000800000000AE
:100090000000000000000000000000008D010008CA
:1000A0008D0100088D0100088D0100088D010008F8
:1000B0008D0100088D0100088D0100088D010008E8
:1000C0008D0100088D0100088D0100088D010008D8
:1000D0008D0100088D0100088D0100088D010008C8
:1000E0008D0100088D0100088D010008000000004E
:1000F0000000000000000000000000000000000000
:1001000000000000000000000000000000000000EF
:1001100000000000000000008D0100088D010008B3
:100120005FF808F180B582B000AF134B7B60134BD2
:100130003B600BE07B681A683B681A603B6803F120
:1001400004033B607B6803F104037B603A680C4B5B
:100150009A42EFD30B480C494FF000028842B8BFD7
:1001600040F8042BFFF6FAAF00F014F800F0DAF9CB
:1001700007F10807BD4680BD100C000800000020F4
:1001800000000020000000200400002080B400AF28
:10019000FEE700BF80B500AF174B174A126842F068
:1001A00001021A60144A144B5968144B0B405360F7
:1001B000114A114B1B6823F0847323F480331360BE
:1001C0000D4B0D4A126822F480221A600A4B0A4A2B
:1001D000526822F4FE025A60074B4FF41F029A60E5
:1001E000054B4FF00002DA6200F00CF8044B4FF0C0
:1001F00000629A6080BD00BF001002400000FFF85E
:1002000000ED00E080B500AF00F002F880BD00BF57
:1002100080B483B000AF4FF000037B604FF0000369
:100220003B60314B304A126842F480321A602E4BE8
:100230001B6803F400333B607B6803F101037B60C0
:100240003B68002B03D17B68B3F5A06FEFD1264B41
:100250001B6803F40033002B03D04FF001033B6015
:1002600002E04FF000033B603B68012B37D11E4B8F
:100270001D4A52685A601C4B1B4A52685A601A4BFE
:10028000194A52685A60184B174A526822F47C1275
:100290005A60154B144A526842F498125A60124B35
:1002A000114A126842F080721A6000BF0E4B1B6840
:1002B00003F00073002BF9D00B4B0B4A526822F06D
:1002C00003025A60084B084A526842F002025A6020
:1002D00000BF054B5B6803F00C03082BF9D107F155
:1002E0000C07BD4680BC70470010024080B489B046
:1002F00000AF786039604FF00003FB614FF00003FE
:100300003B614FF00003BB614FF00003FB604FF017
:1003100000037B614FF00003BB603B68DB7803F0B8
:100320000F03FB613B68DB7803F01003002B04D064
:100330003B689B78FA691343FB613B681B88DBB21F
:10034000002B4ED07B681B687B614FF00003BB61C4
:1003500041E0BB694FF0010202FA03F3FB603B6826
:100360001B881A46FB6813403B613A69FB689A4256
:100370002DD1BB694FEA8303FB60FB684FF00F028E
:1003800002FA03F3BB60BB686FEA03037A691340A8
:100390007B61FB68FA6902FA03F37A6913437B61B4
:1003A0003B68DB78282B07D1BB694FF0010202FACA
:1003B00003F27B685A610AE03B68DB78482B06D180
:1003C000BB694FF0010202FA03F27B681A61BB6954
:1003D00003F10103BB61BB69072BBAD97B687A695A
:1003E0001A603B681B88FF2B53D97B685B687B6175
:1003F0004FF00003BB6146E0BB6903F108034FF017
:10040000010202FA03F3FB603B681B881A46FB6893
:1004100013403B613A69FB689A4230D1BB694FEAAD
:100420008303FB60FB684FF00F0202FA03F3BB602B
:10043000BB686FEA03037A6913407B61FB68FA6962
:1004400002FA03F37A6913437B613B68DB78282B5C
:1004500008D1BB6903F108034FF0010202FA03F26D
:100460007B685A613B68DB78482B08D1BB6903F194
:1004700008034FF0010202FA03F27B681A61BB69BC
:1004800003F10103BB61BB69072BB5D97B687A69AE
:100490005A6007F12407BD4680BC704780B483B022
:1004A00000AF78607B684FF6FF721A807B684FF070
:1004B00002029A707B684FF00402DA7007F10C07B1
:1004C000BD4680BC704700BF80B483B000AF786089
:1004D0000B467B807A887B681A6107F10C07BD4662
:1004E00080BC704780B483B000AF78600B467B80DF
:1004F0007A887B685A6107F10C07BD4680BC70475B
:1005000080B483B000AF786003E07B6803F1FF3311
:100510007B607B68002BF8D107F10C07BD4680BCDF
:10052000704700BF80B582B000AF00F039F807F126
:1005300004031846FFF7B2FF4FF40043BB804FF0AF
:100540001003FB714FF00103BB7107F10403114865
:100550001946FFF7CBFE4FF48073BB8007F104030D
:100560000D481946FFF7C2FE00F064F800F0D6F817
:100570000A48FFF7C5FF08484FF48071FFF7A4FF52
:100580000648FFF7BDFF04484FF48071FFF7AAFF4C
:10059000EEE700BF000C01400010014000093D00E3
:1005A00080B500AF00F0E0F84FF4803000F00EF9B5
:1005B00000F03AF903461A461D4B1A701C4B1B7883
:1005C000012B27D14FF0000000F0BAF94FF00000E6
:1005D00000F0EEF94FF4806000F0CEF94FF4803077
:1005E0004FF4802100F052F94FF0010000F06EF955
:1005F00000BF4FF0390000F039FA0346002BF8D065
:100600004FF0020000F072F900BF00F08BF90346D2
:10061000082BFAD141F21C004FF0010100F0E6F97D
:100620004FF480404FF0010100F000FA80BD00BFA0
:100630000000002080B588B000AF4FF020033B835E
:100640004FF00303BB764FF01803FB7607F1180356
:1006500030481946FFF74AFE4FF040033B834FF006
:100660004803FB7607F118032A481946FFF73EFEB8
:100670004FF080033B834FF01803FB7607F118031C
:1006800024481946FFF732FE4FF010033B834FF02A
:100690001003FB7607F118031E481946FFF726FEE4
:1006A0004FF00003BB804FF48273FB804FF00003D8
:1006B0003B814FF000037B814FF00003BB814FF47F
:1006C0000073FB814FF018033B824FF00703BB829E
:1006D00007F104031048194600F008FA0E484FF0DD
:1006E000010100F047FA4FF00D03FB8309484FF07A
:1006F0001001FFF7F7FEFB8B0748194600F05AFA86
:1007000004484FF01001FFF7DFFE07F12007BD4658
:1007100080BD00BF000801400030014080B582B0BC
:1007200000AF4FF000037B6013E07B687B807B8829
:100730000B48194600F03EFA00BF0A484FF001018D
:1007400000F046FA0346002BF7D07B6803F1010363
:100750007B607B68032BE8DD07F10807BD4680BDA1
:10076000003001400038004080B400AF154B154AFE
:10077000126842F001021A60124A124B5968124B79
:100780000B4053600F4A0F4B1B6823F0847323F414
:10079000803313600B4B0B4A126822F480221A60DC
:1007A000084B084A526822F4FE025A60054B4FF487
:1007B0001F029A60034B4FF00002DA62BD4680BC14
:1007C000704700BF001002400000FFF880B483B003
:1007D00000AF7860134B134A126822F480321A601B
:1007E000104B104A126822F480221A607B68B3F51D
:1007F000803F03D0B3F5802F07D00DE0094B094AA5
:10080000126842F480321A6007E0064B054A12680B
:1008100042F4A0221A6000E000BF07F10C07BD46B9
:1008200080BC70470010024080B582B000AF4FF02E
:1008300000033B604FF00003FB714FF00003BB71FE
:100840004FF0310000F012F90346BB713B6803F131
:1008500001033B603B68B3F5A06F02D0BB79002B6E
:10086000EED04FF0310000F001F90346002B03D029
:100870004FF00103FB7102E04FF00003FB71FB79C5
:10088000184607F10807BD4680BD00BF80B485B09B
:1008900000AF786039604FF00003FB600A4B5B6883
:1008A000FB60FB6823F47413FB607A683B681343B6
:1008B000FA681343FB60044BFA685A6007F11407A7
:1008C000BD4680BC704700BF0010024080B483B0BA
:1008D00000AF0346FB71044BFA791A6007F10C076D
:1008E000BD4680BC704700BF6000424280B485B006
:1008F00000AF78604FF00003FB60094B5B68FB6062
:10090000FB6823F00303FB60FA687B681343FB601A
:10091000034BFA685A6007F11407BD4680BC704764
:100920000010024080B400AF044B5B68DBB203F000
:100930000C03DBB21846BD4680BC70470010024075
:1009400080B485B000AF78604FF00003FB60094BC6
:100950005B68FB60FB6823F0F003FB60FA687B6870
:100960001343FB60034BFA685A6007F11407BD4656
:1009700080BC70470010024080B485B000AF786042
:100980004FF00003FB60094B5B68FB60FB6823F4DE
:10099000E063FB60FA687B681343FB60034BFA6813
:1009A0005A6007F11407BD4680BC70470010024032
:1009B00080B485B000AF78604FF00003FB600A4B55
:1009C0005B68FB60FB6823F46053FB607B684FEA65
:1009D000C303FA681343FB60034BFA685A6007F1DC
:1009E0001407BD4680BC70470010024080B483B03D
:1009F00000AF78600B46FB70FB78002B06D00A4BEB
:100A0000094A91697A680A439A6107E0064B064AE7
:100A100091697A686FEA02020A409A6107F10C074D
:100A2000BD4680BC704700BF0010024080B483B058
:100A300000AF78600B46FB70FB78002B06D00A4BAA
:100A4000094AD1697A680A43DA6107E0064B064A27
:100A5000D1697A686FEA02020A40DA6107F10C078D
:100A6000BD4680BC704700BF0010024080B487B014
:100A700000AF0346FB714FF00003FB604FF0000333
:100A80007B614FF00003FB74FB794FEA5313DBB239
:100A9000FB60FB68012B03D1134B1B687B6109E0F2
:100AA000FB68022B03D1104B1B6A7B6102E00E4BEB
:100AB0005B6A7B61FB7903F01F03FB60FB687A696B
:100AC00022FA03F303F00103002B03D04FF00103DC
:100AD000FB7402E04FF00003FB74FB7C184607F147
:100AE0001C07BD4680BC70470010024080B485B032
:100AF00000AF786039604FF00003FB817B681B8892
:100B0000FB81FB8903F44153FB813B681A883B68F6
:100B10005B8813439AB23B689B8813439AB23B6845
:100B2000DB8813439AB23B681B8913439AB23B6834
:100B30005B8913439AB23B689B8913439AB23B6823
:100B4000DB8913439AB2FB891343FB817B68FA89E3
:100B50001A807B689B8B9BB223F400639AB27B68FC
:100B60009A833B681A8A7B681A8207F11407BD468C
:100B700080BC704780B483B000AF78600B46FB70D8
:100B8000FB78002B08D07B681B889BB243F04003A6
:100B90009AB27B681A8007E07B681B889BB223F0BF
:100BA00040039AB27B681A8007F10C07BD4680BCEF
:100BB000704700BF80B483B000AF78600B467B8085
:100BC0007B687A889A8107F10C07BD4680BC704724
:100BD00080B485B000AF78600B467B804FF0000397
:100BE000FB737B681B899AB27B8813409BB2002BF6
:100BF00003D04FF00103FB7302E04FF00003FB73DF
:100C0000FB7B184607F11407BD4680BC704700BF48
:0400000508000000EF
:00000001FF
